{
  "_format": "hh-sol-artifact-1",
  "contractName": "TodoList",
  "sourceName": "contracts/TodoList.sol",
  "abi": [
    {
      "anonymous": false,
      "inputs": [
        {
          "indexed": true,
          "internalType": "address",
          "name": "_from",
          "type": "address"
        },
        {
          "indexed": false,
          "internalType": "uint256",
          "name": "id",
          "type": "uint256"
        },
        {
          "indexed": false,
          "internalType": "string",
          "name": "content",
          "type": "string"
        },
        {
          "indexed": false,
          "internalType": "bool",
          "name": "completed",
          "type": "bool"
        }
      ],
      "name": "TaskCompletedToggled",
      "type": "event"
    },
    {
      "anonymous": false,
      "inputs": [
        {
          "indexed": true,
          "internalType": "address",
          "name": "_from",
          "type": "address"
        },
        {
          "indexed": false,
          "internalType": "uint256",
          "name": "id",
          "type": "uint256"
        },
        {
          "indexed": false,
          "internalType": "string",
          "name": "content",
          "type": "string"
        },
        {
          "indexed": false,
          "internalType": "bool",
          "name": "completed",
          "type": "bool"
        }
      ],
      "name": "TaskCreated",
      "type": "event"
    },
    {
      "anonymous": false,
      "inputs": [
        {
          "indexed": true,
          "internalType": "address",
          "name": "_from",
          "type": "address"
        },
        {
          "indexed": false,
          "internalType": "uint256",
          "name": "id",
          "type": "uint256"
        }
      ],
      "name": "TaskDeleted",
      "type": "event"
    },
    {
      "anonymous": false,
      "inputs": [
        {
          "indexed": true,
          "internalType": "address",
          "name": "_from",
          "type": "address"
        },
        {
          "indexed": false,
          "internalType": "uint256",
          "name": "id",
          "type": "uint256"
        },
        {
          "indexed": false,
          "internalType": "string",
          "name": "content",
          "type": "string"
        },
        {
          "indexed": false,
          "internalType": "bool",
          "name": "completed",
          "type": "bool"
        }
      ],
      "name": "TaskTitleUpdated",
      "type": "event"
    },
    {
      "inputs": [
        {
          "internalType": "string",
          "name": "_title",
          "type": "string"
        }
      ],
      "name": "createTask",
      "outputs": [],
      "stateMutability": "nonpayable",
      "type": "function"
    },
    {
      "inputs": [],
      "name": "dataCount",
      "outputs": [
        {
          "internalType": "uint256",
          "name": "",
          "type": "uint256"
        }
      ],
      "stateMutability": "view",
      "type": "function"
    },
    {
      "inputs": [
        {
          "internalType": "uint256",
          "name": "_taskId",
          "type": "uint256"
        }
      ],
      "name": "deleteTask",
      "outputs": [],
      "stateMutability": "nonpayable",
      "type": "function"
    },
    {
      "inputs": [
        {
          "internalType": "uint256",
          "name": "_taskId",
          "type": "uint256"
        }
      ],
      "name": "getTask",
      "outputs": [
        {
          "components": [
            {
              "internalType": "uint256",
              "name": "id",
              "type": "uint256"
            },
            {
              "internalType": "string",
              "name": "title",
              "type": "string"
            },
            {
              "internalType": "bool",
              "name": "completed",
              "type": "bool"
            }
          ],
          "internalType": "struct TodoList.Task",
          "name": "task",
          "type": "tuple"
        }
      ],
      "stateMutability": "view",
      "type": "function"
    },
    {
      "inputs": [],
      "name": "taskCount",
      "outputs": [
        {
          "internalType": "uint256",
          "name": "",
          "type": "uint256"
        }
      ],
      "stateMutability": "view",
      "type": "function"
    },
    {
      "inputs": [
        {
          "internalType": "uint256",
          "name": "",
          "type": "uint256"
        }
      ],
      "name": "tasks",
      "outputs": [
        {
          "internalType": "uint256",
          "name": "id",
          "type": "uint256"
        },
        {
          "internalType": "string",
          "name": "title",
          "type": "string"
        },
        {
          "internalType": "bool",
          "name": "completed",
          "type": "bool"
        }
      ],
      "stateMutability": "view",
      "type": "function"
    },
    {
      "inputs": [
        {
          "internalType": "uint256",
          "name": "_taskId",
          "type": "uint256"
        }
      ],
      "name": "toggleTaskCompleted",
      "outputs": [],
      "stateMutability": "nonpayable",
      "type": "function"
    },
    {
      "inputs": [
        {
          "internalType": "uint256",
          "name": "_taskId",
          "type": "uint256"
        },
        {
          "internalType": "string",
          "name": "_title",
          "type": "string"
        }
      ],
      "name": "updateTaskTitle",
      "outputs": [],
      "stateMutability": "nonpayable",
      "type": "function"
    }
  ],
  "bytecode": "0x608060405260008055600060015534801561001957600080fd5b50610cf0806100296000396000f3fe608060405234801561001057600080fd5b50600436106100885760003560e01c80636140dd601161005b5780636140dd60146100f55780638d97767214610108578063b6cb58a51461012a578063f6f7ce661461013357600080fd5b8063111002aa1461008d5780631d65e77e146100a2578063560f3192146100cb5780635da40c47146100de575b600080fd5b6100a061009b366004610a2b565b610146565b005b6100b56100b0366004610a68565b610229565b6040516100c29190610ace565b60405180910390f35b6100a06100d9366004610a68565b610320565b6100e760005481565b6040519081526020016100c2565b6100a0610103366004610a68565b6104c9565b61011b610116366004610a68565b610664565b6040516100c293929190610b0c565b6100e760015481565b6100a0610141366004610b37565b610712565b60008054908061015583610b94565b90915550506040805160608101825260008054808352602080840186815284860184905291835260028152939091208251815590518051929391926101a092600185019201906108b2565b50604091909101516002909101805460ff1916911515919091179055600180549060006101cc83610b94565b91905055503373ffffffffffffffffffffffffffffffffffffffff167f75c843b034b367a7ce9e041b36cf7856dba0d7e8eb42159baf7dce38313e19ef60005483600060405161021e93929190610b0c565b60405180910390a250565b61024f604051806060016040528060008152602001606081526020016000151581525090565b600260008381526020019081526020016000206040518060600160405290816000820154815260200160018201805461028790610baf565b80601f01602080910402602001604051908101604052809291908181526020018280546102b390610baf565b80156103005780601f106102d557610100808354040283529160200191610300565b820191906000526020600020905b8154815290600101906020018083116102e357829003601f168201915b50505091835250506002919091015460ff16151560209091015292915050565b80600081116103765760405162461bcd60e51b815260206004820152601760248201527f546865206964206973206e6f7420617661696c61626c6500000000000000000060448201526064015b60405180910390fd5b60008054116103bc5760405162461bcd60e51b8152602060048201526012602482015271139bc81d185cdac819185d1848199bdd5b9960721b604482015260640161036d565b6000600154116103fe5760405162461bcd60e51b815260206004820152600d60248201526c139bc81d185cdac8199bdd5b99609a1b604482015260640161036d565b8060015410156104505760405162461bcd60e51b815260206004820152601860248201527f54686520696420776173206f7574206f6620626f756e64730000000000000000604482015260640161036d565b60008281526002602052604081208181559061046f6001830182610936565b50600201805460ff191690556001805490600061048b83610bea565b909155505060405182815233907fd1bc87501afcaa22b7f6481dac99ed45fbe02321873ca9b55c1f41b9d78b8fb39060200160405180910390a25050565b806000811161051a5760405162461bcd60e51b815260206004820152601760248201527f546865206964206973206e6f7420617661696c61626c65000000000000000000604482015260640161036d565b60008054116105605760405162461bcd60e51b8152602060048201526012602482015271139bc81d185cdac819185d1848199bdd5b9960721b604482015260640161036d565b6000600154116105a25760405162461bcd60e51b815260206004820152600d60248201526c139bc81d185cdac8199bdd5b99609a1b604482015260640161036d565b8060015410156105f45760405162461bcd60e51b815260206004820152601860248201527f54686520696420776173206f7574206f6620626f756e64730000000000000000604482015260640161036d565b600082815260026020819052604091829020908101805460ff19811660ff9182161590811790925582549351929333937f804489a56509c045bf5b6d0290fe70a9cee4aa5e6d873b5dc55a57e61521055093610657936001880192911690610c01565b60405180910390a2505050565b6002602052600090815260409020805460018201805491929161068690610baf565b80601f01602080910402602001604051908101604052809291908181526020018280546106b290610baf565b80156106ff5780601f106106d4576101008083540402835291602001916106ff565b820191906000526020600020905b8154815290600101906020018083116106e257829003601f168201915b5050506002909301549192505060ff1683565b81600081116107635760405162461bcd60e51b815260206004820152601760248201527f546865206964206973206e6f7420617661696c61626c65000000000000000000604482015260640161036d565b60008054116107a95760405162461bcd60e51b8152602060048201526012602482015271139bc81d185cdac819185d1848199bdd5b9960721b604482015260640161036d565b6000600154116107eb5760405162461bcd60e51b815260206004820152600d60248201526c139bc81d185cdac8199bdd5b99609a1b604482015260640161036d565b80600154101561083d5760405162461bcd60e51b815260206004820152601860248201527f54686520696420776173206f7574206f6620626f756e64730000000000000000604482015260640161036d565b6000838152600260209081526040909120835190916108639160018401918601906108b2565b508054600282015460405133927f8edaa4e90d60533ea3b7a600102ff2f829a38f0e56d66a480c1ff98c3192a3ce926108a492600187019160ff1690610c01565b60405180910390a250505050565b8280546108be90610baf565b90600052602060002090601f0160209004810192826108e05760008555610926565b82601f106108f957805160ff1916838001178555610926565b82800160010185558215610926579182015b8281111561092657825182559160200191906001019061090b565b50610932929150610973565b5090565b50805461094290610baf565b6000825580601f10610952575050565b601f0160209004906000526020600020908101906109709190610973565b50565b5b808211156109325760008155600101610974565b634e487b7160e01b600052604160045260246000fd5b600082601f8301126109af57600080fd5b813567ffffffffffffffff808211156109ca576109ca610988565b604051601f8301601f19908116603f011681019082821181831017156109f2576109f2610988565b81604052838152866020858801011115610a0b57600080fd5b836020870160208301376000602085830101528094505050505092915050565b600060208284031215610a3d57600080fd5b813567ffffffffffffffff811115610a5457600080fd5b610a608482850161099e565b949350505050565b600060208284031215610a7a57600080fd5b5035919050565b6000815180845260005b81811015610aa757602081850181015186830182015201610a8b565b81811115610ab9576000602083870101525b50601f01601f19169290920160200192915050565b60208152815160208201526000602083015160606040840152610af46080840182610a81565b90506040840151151560608401528091505092915050565b838152606060208201526000610b256060830185610a81565b90508215156040830152949350505050565b60008060408385031215610b4a57600080fd5b82359150602083013567ffffffffffffffff811115610b6857600080fd5b610b748582860161099e565b9150509250929050565b634e487b7160e01b600052601160045260246000fd5b6000600019821415610ba857610ba8610b7e565b5060010190565b600181811c90821680610bc357607f821691505b60208210811415610be457634e487b7160e01b600052602260045260246000fd5b50919050565b600081610bf957610bf9610b7e565b506000190190565b838152600060206060818401526000855481600182811c915080831680610c2957607f831692505b858310811415610c4757634e487b7160e01b85526022600452602485fd5b6060880183905260808801818015610c665760018114610c7757610ca2565b60ff19861682528782019650610ca2565b60008c81526020902060005b86811015610c9c57815484820152908501908901610c83565b83019750505b50505050861515604087015250909250610a6091505056fea264697066735822122085a0bcb3df5cfe29d184af34cb5309c97ac2c9ae7f6f2f875afb9fd8f17952ed64736f6c63430008090033",
  "linkReferences": {},
  "deployedLinkReferences": {}
}